:020000040800F2
:10000000482C0020990100085D290008B923000848
:10001000592900082D080008852D0008000000005F
:10002000000000000000000000000000BD290008E2
:100030006D080008000000008D290008752A0008DE
:10004000B3010008B3010008B3010008B3010008C0
:10005000B3010008B3010008B3010008B3010008B0
:10006000B3010008B3010008B3010008310800081B
:10007000B3010008B3010008B3010008B301000890
:10008000B3010008B3010008B3010008B301000880
:10009000B3010008B3010008B3010008B301000870
:1000A000B3010008B3010008B3010008B301000860
:1000B000B3010008B3010008B3010008B301000850
:1000C000B3010008B3010008B3010008B301000840
:1000D000B3010008B3010008B3010008B301000830
:1000E000B3010008B3010008B301000800F002F8F2
:1000F00000F043F80AA090E8000C82448344AAF17F
:100100000107DA4501D100F038F8AFF2090EBAE87C
:100110000F0013F0010F18BFFB1A43F0010318473B
:10012000488C0000688C0000103A24BF78C878C161
:10013000FAD8520724BF30C830C144BF04680C60ED
:10014000704700000023002400250026103A28BF35
:1001500078C1FBD8520728BF30C148BF0B60704739
:10016000642900F0D780002070471FB59DE8030088
:1001700000F052F91FBD10B510BD00F021FA114674
:10018000FFF7F3FF04F062FB00F03FFA03B4FFF760
:10019000F2FF03BC00F070FA0948804709480047A5
:1001A000FEE7FEE7FEE7FEE7FEE7FEE7FEE7FEE727
:1001B000FEE7FEE704480549054A064B7047000084
:1001C000F92A0008ED00000848090020482C00200A
:1001D000482800204828002070B5064600F000F9A5
:1001E000056806F10B0020F00704B4429CBF002014
:1001F00070BD2B466A68BAB11068A04210D304F1F2
:10020000080188423CBF5068586007D351681019F4
:1002100041601168091B016058601460101D70BDB9
:1002200013465268002AE7D12146284600F0E0F83C
:100230000028DED170BD70B50446051F00F0D0F86F
:100240000068002C14BF446870BD002C18BFAC427D
:100250003CBF20466468F8D301680A18AA4218BF58
:10026000456003D12A680546114401602868411998
:10027000A1421CBF6C6070BD616869602168084460
:10028000286070BD0FB41CB5074B06AA7B446946B5
:100290000090059800F055F90020694600F064F9D7
:1002A0001CBC5DF814FB0000D90200002DE9F041F0
:1002B0000E460446002020622046E168884730B39D
:1002C000252805D0D4E901219047206A401CF2E797
:1002D000E168204600278847050018D0A5F14100B5
:1002E000192802D820354FF40067324629462046A7
:1002F0002760FFF735FF40B1012804D0F61D26F036
:1003000007060836D8E7361DD6E72846DAE7206A1A
:10031000BDE8F0812DE9F0410646002410687529FA
:10032000314616A510D0AFF30080002802DA404213
:1003300013A507E031688A0701D512A502E0490735
:1003400004D511A5012401E0AFF3008000210A22A9
:1003500006F1240709E0B0FBF2FCB0FBF2F302FB6C
:100360001C00303078541846491C0028F3D123462D
:100370002A463046BDE8F04100F084B80000000095
:100380002D0000002B000000200000004FF00002B4
:1003900000B5134694469646203922BFA0E80C507B
:1003A000A0E80C50B1F12001BFF4F7AF090728BF56
:1003B000A0E80C5048BF0CC05DF804EB890028BFD2
:1003C00040F8042B08BF704748BF20F8022B11F0FB
:1003D000804F18BF00F8012B704770477047704777
:1003E00000487047180000207047704770477047FA
:1003F00038B504460A4600206946AFF3008000285D
:1004000008BF38BD02460099204600F0B7F8012029
:1004100038BD012000F0CCB8F8B5AFF30080054638
:1004200000200C46102000BF0646A819A0420DD996
:10043000324669460020AFF30080070008BF00F095
:10044000B7F80098A04218BF0546C419FFF7C8FFC7
:1004500005600746F01D20F007004619284600F009
:100460000AF8B44208BFF8BDA21B31463868BDE89F
:10047000F84000F083B800210160C0E90110704726
:10048000102070472DE9F0470D46994692460446E4
:1004900000F124080168880604D5E06921F0100104
:1004A000216000E00120A84201DD471B00E0002799
:1004B000A1697A1902EB0900081AA0612078C00628
:1004C00002D42046AFF30080002608E0D4E90121E1
:1004D0001AF806009047206A401C761C20624E45A0
:1004E000F4DB2078C0060AD52046AFF3008006E092
:1004F000D4E9012130209047206A401C2062381E38
:10050000A7F10107F4DC07E0D4E9012118F80500A0
:100510009047206A401C2062281EA5F10105F3DCEB
:100520002046AFF300802078000602D50220BDE807
:10053000F0870120FBE7000001694A1C026108788E
:10054000704700B58FB0CDE9013100210591054913
:100550007944CDE9031011466846FFF7A7FE0FB0B6
:1005600000BD0000E5FFFFFF0A6802F8010B0A600A
:1005700070470000004870471000002003464068A4
:100580008C46002818BF88423CBF03464068F8D319
:1005900018681844884207D00CF1030020F00700C7
:1005A000001D411A521A0146081D0A60FFF743BE9A
:1005B00010B500F039F8BDE8104000F02FB87047D2
:1005C0007546FFF7D7FFAE4605006946534620F053
:1005D0000700854618B020B5FFF7ECFDBDE82040C8
:1005E0004FF000064FF000074FF000084FF0000BEF
:1005F000AC46ACE8C009ACE8C009ACE8C009ACE85E
:10060000C00921F007018D46704710B50446AFF3CD
:1006100000802046BDE81040FFF7B8BD002801D09B
:1006200000F02AB87047000010B5012805D000215D
:1006300003A000F027F8012010BD09A1F8E7000091
:1006400053494752544D454D3A204F7574206F66BB
:100650002068656170206D656D6F72790000000023
:100660003A2048656170206D656D6F727920636F07
:10067000727275707465640001491820ABBEFEE7A4
:100680002600020070B505460C460A2000E06D1CED
:1006900000F011F835B128780028F8D102E0641C88
:1006A00000F009F814B120780028F8D1BDE87040B6
:1006B0000A20AFF3008008B569468DF800000320DA
:1006C000ABBE08BDB0B5044600688168C90709D053
:1006D000816821F00101816000F0C0FE2168896815
:1006E000C90701D10020B0BD054603E0206880683D
:1006F000C007F7D000F0B2FE401B0328F6D32068F5
:100700008068C007F2D0A06A40F01000A062E06AE2
:1007100040F00100E0620120B0BD000080B501465C
:10072000406A826A12F0500F04D0006A026B0846D9
:10073000904780BD0168826A42F4007282628968D3
:1007400001F46021B1F5602F01D1017B11B100F0FE
:100750001BF980BD816A21F480718162816AC904BC
:10076000F5D4816A41F00101816200F00DF980BD8C
:1007700080B5406A816A41F040018162C16A41F0FE
:100780000401C16200F00AF980BD000080B5406A32
:1007900000F002F980BD0000B0B582B00446002030
:1007A000019021688A68D2073DD1886840F0010035
:1007B000886040F20000C2F2000000684DF68361DC
:1007C000C4F21B31A0FB0101880C00BF019001980D
:1007D00010B101980138F9E700F040FE21688968FE
:1007E000C9071CD1054603E020688068C00719D1FD
:1007F00000F034FE401B0328F6D320688068C00751
:10080000F2D1A06A40F01000A062E06A40F001005E
:10081000E062002084F82400012002B0B0BD002076
:1008200002B0B0BD002002B0B0BD0000FEE7000085
:1008300080B540F2F050C2F2000000F0ABFB80BD8A
:10084000B0B5D0E900CED0E90F40012505FA00F09F
:1008500060600846CCF80430BEF1100F04BF1046AB
:100860000A46CCF80800CCF80C20B0BD7047000058
:10087000EFF3108072B600BFFEE7000070B581B0E4
:100880000022009290F82420012A01D1022177E071
:100890004A680123062A80F8243005D803686FF0DF
:1008A000040C03F1340E0AE003680C2A87BF03F13D
:1008B0002C0E6FF0400C03F1300E6FF0220C02EBA7
:1008C0008202DEF8005062441F230C68934025EA40
:1008D000030304FA02F21A43CEF800200E68D0F89F
:1008E00000E006EB46051024092E88BF1E3D88BF98
:1008F0000C245EF8042007238968AB409A43A94082
:1009000011434EF8041026F001014FF0000C10299D
:100910004FF0000132D142F20041C4F201018E4594
:1009200005D0816A41F020018162012126E08968B9
:10093000090222D4DEF80810102E41F40001CEF88E
:1009400008101AD140F20001C2F2000109684DF608
:100950008362C4F21B32A1FB0212910C01EB8101F4
:1009600049000091009941B1009901390091009925
:1009700000294FF00001F7D100E0002180F824C0E9
:10098000084601B070BD000040F62C10C2F2000015
:1009900001210160704700007047000070470000AF
:1009A0000068C06C70470000002804BF0120704739
:1009B000F0B581B00746044657F8280F30B900203B
:1009C000E06284F82400204600F07CF82046FFF71F
:1009D00079FEA26AA16A002808BF12F0100205D0B1
:1009E00041F010010120396001B0F0BD41F2021266
:1009F00091430231A162E169D4E9013241EA030580
:100A0000511EB1FA81F149091346B2F5807F18BF32
:100A10000B02267D217B012E45EA410C13D141B109
:100A2000A16A41F02001A162E16A41F00101E162A5
:100A300009E0A1694EF20006CFF6FF7606EB4131E0
:100A4000194341F400632168B2F5807F4E6826F4B3
:100A5000694643EA06034B608B684FF2FD76CFF69A
:100A6000E17603EA060343EA0C038B6001D0012A16
:100A700006D122690023CFF6F07303EB025200E0A7
:100A80000022CB6A23F470031A43CA62896840F6D5
:100A9000FE62CFF61F721140614506D10021E1626E
:100AA000A16A012262F301019DE7A06A40F01000F3
:100AB00020F00200A06254F82C0F40F00101012048
:100AC000274690E7B0B586B00446006842F60001BC
:100AD000C4F2010188424FF00001CDE90411CDE9D3
:100AE000021148D042F20041C4F20101884263D1B0
:100AF00041F21800C4F20200016841F40071016083
:100B0000016801F4007101910199016841F004014B
:100B10000160006802A900F0040001900198012022
:100B200002900320039040F60000C4F2010000F0A0
:100B300081FB40F2F0550820C2F20005C4F2020029
:100B40000021C5E9000105F1080080224FF48073FF
:100B50004FF4806C4FF4005E80E80E102846C5E923
:100B6000061E00F0D9FA002818BFFFF781FE2562A3
:100B70006C6206B0B0BD41F21800C4F20200016818
:100B800041F480610160016801F480610191019983
:100B9000016841F004010160006802A900F004004E
:100BA00001900198022002900320039040F600007B
:100BB000C4F2010000F03EFB06B0B0BD2DE9F041EB
:100BC00082B000260D460446019600F047FC2168DD
:100BD0008A68D2053CD480464868C00503D4C86AF8
:100BE00010F4700F3ED040F20000C2F20000066820
:100BF000022000F081FE216844F624130A69B6FB46
:100C0000F0F0C2F292431A4206D1CA6844F62413A5
:100C1000C0F292031A423ED00A6942F29243C1F2F4
:100C200049231A4206D1CA6842F29243C0F24903EC
:100C30001A4242D00A6949F24923C0F224031A42F7
:100C40004FF0FC023AD1C968194208BF542235E07E
:100C5000A06A40F02000A06284F82460012002B065
:100C6000BDE8F08120680068800743D46E1C07E06F
:100C70002068006880075CD520680068800739D448
:100C8000002EF9D0002DF3D000F0E8FBA0EB080017
:100C9000A842EDD8F0E70A6942F29243C1F2492333
:100CA0001A424FF0290209D1C96842F29243C0F2B8
:100CB0004903194208BF142200E05422019902FBA3
:100CC00000F7B94216D26E1C09E000BF0198B84285
:100CD0002FD30198013001900198B8420AD2002E1A
:100CE000F7D0002DF2D000F0B9FBA0EB0800A8422D
:100CF000ECD8EEE720686FF012010160A16A41F4C0
:100D00000071A162806800F46020B0F5602F0CD102
:100D1000207B50B9A06A20F48070A062A06AC00451
:100D200003D4A06A40F00100A062002002B0BDE838
:100D3000F081A06A40F00400A062002084F8240042
:100D4000032002B0BDE8F08110B5044690F82400FD
:100D5000012804BF022010BD012084F82400204691
:100D6000FFF71AFD18B1002184F8241010BD42F2DB
:100D7000044C2168A26AC4F2010C40F201339A4388
:100D80000CF57F7E02F580727145A26207D0A26ADF
:100D900022F48012A2624A68520519D41DE0DCF8E0
:100DA000002012F4702FF2D0A26A42F60003C4F2BF
:100DB000010342F480129942A26205D042F200423D
:100DC000C4F20102914208D1DCF80020520504D59A
:100DD000A26A012363F30D32A262A36A0022DB043C
:100DE0004FF0000344BFE36A23F00603E36284F894
:100DF00024206FF002020A608A6802F46022B2F5D1
:100E0000602F0BD1714504D08A6842F4A0028A6039
:100E100010BDDCF8002012F4702FF5D08A6842F47F
:100E200080128A6010BD00002DE9F041054600687F
:100E300042F60006C4F201069046B0420F4605D0C5
:100E400042F20041C4F2010188420AD142F2044058
:100E5000C4F20100006810F4702F1CBF0120BDE82F
:100E6000F08195F82400012804BF0220BDE8F0813C
:100E7000012085F824002846FFF78EFC044628B19F
:100E8000002085F824002046BDE8F08142F20440AD
:100E90002968AA6AC4F2010040F601739A4300F57A
:100EA0007F7302F580729942AA6207D0A86A20F483
:100EB0008010A8624868400518D512E0026812F454
:100EC000702FF3D0AA6AB14242F48012AA6205D010
:100ED00042F20042C4F20102914207D1006840058B
:100EE00004D5A86A012262F30D30A862AA6A002024
:100EF000D2044FF0000244BFEA6A22F00602EA621E
:100F000085F82400286A40F21D72C0F6000240F203
:100F10008D7340F2717600F1280CC0F60003C0F624
:100F200000068CE84C006FF002020A608A684346B3
:100F300042F480728A604C313A4600F031F92868F8
:100F4000816801F460228168B2F5602F0CBF41F422
:100F5000A00141F4801181602046BDE8F0810000CD
:100F600010B5044690F82400012804BF022010BDEB
:100F7000012084F824002046FFF7A4FB28B9A16AC9
:100F800041F2011291430131A162002184F8241041
:100F900010BD000010B50168D0E90FCEDCF80020CC
:100FA0000B685C0727D5042404FA0EF4144022D001
:100FB0000A68920603D40A6822F004020A600268F2
:100FC0002F21C4F202018A4240F20401C4F202015C
:100FD0005ADD3023C4F202039A426DD04423C4F296
:100FE00002039A426BD05823C4F202039A426BD197
:100FF0004FF4802370E09C072AD5022404FA0EF4F3
:10100000144025D00A68920606D40A6822F00A0223
:101010000A60012180F8211002682F21C4F2020128
:101020008A4240F20401C4F2020139DD3023C4F2E5
:1010300002039A4256D04423C4F202039A4254D087
:101040005823C4F202039A4254D14FF4003359E0BA
:101050001B0758BF10BD082303FA0EF31A4012D025
:101060000A6822F00E020A60012101FA0EF2CCF8A1
:101070000420816380F82110016B0022002980F890
:10108000202018BF884710BD0823C4F202039A42EB
:1010900018D01C23C4F202039A4215D140231BE04E
:1010A0000823C4F202039A4222D01C23C4F2020392
:1010B0009A421FD1202325E04FF480630CE04FF4C7
:1010C000804309E0042307E001F168044FF08063E6
:1010D000A24208BF4FF480030B60C16A0029D2D03E
:1010E000884710BD4FF400730CE04FF4005309E043
:1010F000022307E001F168044FF00073A24208BF29
:101100004FF400130B60816A0022002980F8202030
:10111000B9D0884710BD0000014600284FF00100FB
:1011200008BF70472DE9F043D1F800C04FF6F873BF
:10113000CBF6FD734CF6CD426344CCF6CC42A3FB18
:1011400002236FF0030707EA9303002701F10C095C
:10115000C4F20207D1E9012E99E87002D1F81C808F
:10116000C1E90F73022381F82130DCF8003043F627
:10117000F077BB431A4342EA0E0222432A4332432A
:1011800042EA090242EA0802CCF8002000228A63FF
:1011900081F8210081F820200020BDE8F04370474D
:1011A00010B5044690F82000012820D0012084F8D2
:1011B000200094F82100012816D1022084F8210093
:1011C0000020A063D4F800C0DCF8000020F001008B
:1011D000CCF800002046FFF733FB2068E26A016884
:1011E0003AB141F00E010AE0002084F8200002200C
:1011F00010BD21F004010160016841F00A010160A5
:10120000016841F001010160002010BDB0B5044645
:1012100000F024F9054640F20A00C2F2000000780E
:10122000611C18BF044400BF00F018F9401BA04225
:10123000FAD3B0BD2DE9F04F84B00E680290002EB5
:1012400000F0038140F20C4E40F2004741F20042B0
:101250000298C4F2010EC4F20107C4F20102042391
:10126000002401254FF0000A4FF00009904208BF0A
:10127000032300930AE000BF01250E680AF1010A6A
:1012800036FA0AF204F1040400F0DF8005FA0AFBE2
:1012900016EA0B08F1D04A684FF6FF73C1F210034B
:1012A0009A4211DC122A54D80298DFE802F0350A7B
:1012B0004347535353535353535353535353534A23
:1012C0004E00D1F80C9045E04FF6FF73C1F22103B8
:1012D0009A4210DC0023C1F2110302989A421BD0FB
:1012E0000023C1F212039A4216D00023C1F2210357
:1012F0009A4211D02EE00023C1F2220302989A42B2
:101300000AD00023C1F231039A4205D00023C1F272
:1013100032039A421ED100BF8A6842B1012A14BF2B
:10132000C0F814B0C0F810B04FF0080912E04FF048
:1013300004090FE0CA6802F108090BE04FF0000948
:1013400008E0CA6802F1040904E0CA6802F10C0965
:1013500000E0029822460346B8F5807F24BF203A79
:1013600004331D684FF00F0C0CFA02F6B54309FA6E
:1013700002F22A431A60CA79D2067FF57DAF41F2A4
:101380001803CDF80490C4F202031A68F34642F041
:1013900001021A601A684FEA9A0E02F001020392E3
:1013A000039AA7F57E72B94652F82E3004F00C0766
:1013B00040F600060CFA07F5C4F20106B04223EA33
:1013C000050C10D040F60043C4F2010398420CD043
:1013D00041F20003C4F201039842009B4FF0010563
:1013E00008BF022303E0002300E001230125BB40E6
:1013F00043EA0C0342F82E304E684F46F202D9F809
:10140000082054BF22EA080242EA0802DE46DDF85C
:101410000490BA60DEF80020B30254BF22EA08024A
:1014200042EA0802CEF800207A68B30354BF22EAE9
:10143000080242EA08027A603A68F30354BF22EADB
:10144000080242EA08023A6017E704B0BDE8F08FEC
:10145000002A08BF090401617047000040F64410EB
:10146000C2F200000068704770B5B0B3044690F84F
:101470003D0028B9002084F83C00204600F058F9CF
:10148000242084F83D002068016821F001010160FA
:10149000016841F400410160016821F400410160EC
:1014A00000F0EAFB48F28041C0F21E0140F6001253
:1014B000666888424FF00001C0F23D0248F2A16C1C
:1014C0004FF0000338BF01219042C0F2010C38BF39
:1014D0000123664538BF0B460BB1012070BD4DF6A8
:1014E0008361C4F21B31A0FB01122168930C4D688B
:1014F000664525F03F0545EA92424A600A6A22F0B5
:101500003F0C09D34FF496725A4344F6D353C1F2B9
:101510006203A2FB03239B095A1C42EA0C020A62E3
:1015200048F2A063CA69C0F201039E424CF6FF7301
:1015300022EA030C0AD801387200B0FBF2F0013045
:101540006FF31F30042898BF04202BE0A368A0F19C
:10155000010E9BB119207043BEFBF0F00422013054
:1015600062F31F30000512D09BB119207043BEFBFF
:10157000F0F00422013062F31F3011E006EB460068
:10158000BEFBF0F001306FF31F300005ECD10120FD
:1015900008E006EB4600BEFBF0F001306FF31F30B1
:1015A00040F4004040EA0C00C8610868D4E9072311
:1015B00020F0C000104318430860886848F2FF32EA
:1015C00004F10C0690434CCE18431043A569886083
:1015D000C86820F0FF0030432843C860086840F026
:1015E0000100086000202021206484F83D10206361
:1015F00084F83E0070BD00002DE9F04782B01E4621
:10160000174689460446FFF729FF94F83D10202924
:101610000ED102210546C0F21001204601221923F5
:10162000009500F071FF18B994F83C00012803D12F
:10163000022002B0BDE8F0870121206884F83C1048
:101640000168DDF82880C90703D1016841F0010174
:10165000016001684FF0000A21F40061016021205F
:1016600084F83D00102084F83E00C4F840A0676272
:101670006685608D494620850020CFF6FF70E062C8
:10168000204642462B4600F0B1FE18B1012002B0C0
:10169000BDE8F087CDF804A0206841690191806918
:1016A0000190019806E000BF204641462A4600F01E
:1016B000F5FE20BB208D58B3204641462A4600F057
:1016C000C7FFE0B9606A2168024612F8013B0B616E
:1016D0006262628D013A6285228D571E27854B69B1
:1016E0003F0418BF13F00403DED0437802300B61CF
:1016F0006062608D01386085901E2085D4E7206C83
:101700000428C3D12068016841F400710160BDE77D
:101710002068016841F400710160202084F83D00D8
:10172000002084F83E0084F83C0002B0BDE8F08759
:1017300010B586B0006845F60001C4F20001884289
:101740004FF00001CDE90411CDE902112AD045F294
:101750000041C4F20001884248D141F21804C4F2A9
:101760000204206802A940F008002060206800F010
:10177000080001900198C0200290122003900320DD
:10178000059040F60040C4F20100FFF753FD606889
:1017900040F400106060606800F40010019001984F
:1017A00006B010BD41F21804C4F20204206802A978
:1017B00040F008002060206800F0080001900198C7
:1017C0004FF440600290122003900320059040F6F1
:1017D0000040C4F20100FFF72DFD606840F4800076
:1017E0006060606800F480000190019806B010BD50
:1017F00040F20A0040F64411C2F20000C2F20001B9
:1018000000780A68104408607047000080B542F212
:101810000000C4F20200016841F0100101600320E1
:1018200000F066F80F2000F005F800F02BF800201B
:1018300080BD0000B0B540F20A02C2F2000240F2E0
:1018400000011278C2F200014FF47A730968B3FB09
:10185000F2F20446B1FBF2F1084600F0EBFB0F2C6C
:101860004FF001050CD858B94FF0FF302146002247
:10187000002500F02DF840F20C00C2F200000460D8
:101880002846B0BD82B041F21800C4F202000168DF
:10189000022241F001010160016801F001010191A2
:1018A0000199416841F080514160406800F08050EA
:1018B000009000980420C4F20100016862F31A61EC
:1018C000016002B07047000080B501F05DFA80BD94
:1018D00070B514460D46064601F066FA29462246C2
:1018E00001F03EF80146304601F066FA70BD000096
:1018F00080B501F073FA80BD80B5012818D00228A8
:1019000041D010283DD141F20401C4F202010A681D
:1019100051F8040CC00134D5C2F383402EA3185CE7
:10192000D2033FD440F60012C0F23D02504345E0DE
:1019300041F20400C4F20200C16940F202320A40DE
:10194000B2F5817F04BF4FF4004080BD01F44071C7
:10195000B1F5407F0DD0B1F5007F12D1026A920738
:1019600044BF49F6404080BDB1F5407F1CBF002018
:1019700080BD50F8040C4FF22441800301EAE0706E
:1019800080BD002080BD00F089F941F20401C4F25D
:10199000020109680222C1F3813102EB4101B0FB6F
:1019A000F1F080BD0A6810A3C2F340429A5C41F294
:1019B0000023C0F27A03B3FBF2F2504309684902F4
:1019C00048BF80BD4AF6AB214000CAF6AA21A0FB61
:1019D0000101480880BD00BF02030405060708098D
:1019E0000A0B0C0D0E0F1010010200002DE9F04142
:1019F00082B00446007841F21C06C007C4F2020619
:101A00004ED03068C0000BD430684FF0010840F071
:101A100080503060306800F080500190019801E003
:101A20004FF0000847F20007C4F200073868C0050D
:101A300012D4386840F480703860FFF70FFD054617
:101A40003868C00508D4FFF709FD401B6428F7D9A2
:101A5000032002B0BDE8F081706810F4407012D02D
:101A6000616801F4407188420DD0706840F24042D4
:101A7000C4F24222012320F4407113600023C00706
:101A80001360716029D17068616820F44070084368
:101A9000B8F1000F706003D0306820F080503060E3
:101AA0002068810707D556F8181CA26821F4404128
:101AB000114346F8181CC00603D4002002B0BDE84C
:101AC000F08156F8180CE16820F48000084346F8CD
:101AD000180C002002B0BDE8F081FFF7BFFC0546FE
:101AE00041F2883770688007CDD4FFF7B7FC401B00
:101AF000B8424FF00300F5D9ECE700002DE9F043C0
:101B000081B0002800F0878042F20008C4F2020889
:101B10000446D8F800000D4600F0070088420CD2B9
:101B2000D8F8000020F007002843C8F80000D8F8D3
:101B3000000000F00700A8426DD1206841F20409BE
:101B40008107C4F2020917D5410705D5D9F800105D
:101B500041F4E061C9F80010010705D5D9F800107B
:101B600041F46051C9F80010D9F80010A26821F0C2
:101B7000F0011143C9F80010C00745D1D8F80000A2
:101B800000F00700A8420CD9D8F8000020F00700A8
:101B90002843C8F80000D8F8000000F00700A84269
:101BA00039D12068410707D5D9F80010E26821F43F
:101BB000E0611143C9F80010000708D5D9F800000A
:101BC000216920F4605040EAC100C9F8000000F02B
:101BD00077F8D9F8001045F26E02C1F30311C0F690
:101BE0000002515C40F2000220FA01F140F20C00C8
:101BF000C2F200000068C2F200021160FFF71AFE94
:101C0000002001B0BDE8F0836068012807D159F8D1
:101C1000041C89030CD4012001B0BDE8F08359F8FD
:101C2000041C022802D18901F5D501E08907F2D50B
:101C3000D9F8001021F003010843C9F80000FFF7AC
:101C40000DFC064641F28837D9F80000616800F0C3
:101C50000C00B0EB810F91D0FFF700FC801BB84265
:101C6000F2D9032001B0BDE8F083000040F200008B
:101C7000C2F200000068704780B5FFF7F7FF41F23D
:101C80000401C4F20201096845F27E02C1F3022197
:101C9000C0F60002515CC84080BD000080B5FFF76F
:101CA000E5FF41F20401C4F20201096845F27E0237
:101CB000C1F3C221C0F60002515CC84080BD0000E3
:101CC00041F2040CC4F2020CDCF8003003F00C000A
:101CD000082841F20020C0F27A0018BF7047C3F311
:101CE00083420AA18A5CD90305D440F60010C0F2F1
:101CF0003D0050437047DCF8001008A3C1F3404199
:101D0000595C5043B0FBF1F0704700BF020304057B
:101D1000060708090A0B0C0D0E0F10100102000037
:101D20002DE9F04182B0002800F0C480044600781C
:101D300041F20006C007C4F2020643D0706800F00A
:101D40000C00042817D0706800F00C00082802D19D
:101D50007068C0030FD465689DB1B5F5803F06D0AB
:101D60003068B5F5A02F0DD140F480203060306888
:101D700040F480300CE03068800323D5606808BBF5
:101D800098E0306820F480303060306820F48020A3
:101D90003060FFF763FB002D054610D030688003EC
:101DA00010D4FFF75BFB401B6428F7D908E100BFA4
:101DB000FFF754FB401B64284FF0030077D83068CE
:101DC0008003F5D42078800718D5706810F00C0FC8
:101DD00007D0706800F00C00082826D17068C00396
:101DE00023D43068800702D52069012862D1306889
:101DF000616920F0F80040EAC100306020780007F7
:101E00003DD5A06938B30020C4F242200121C0F8BA
:101E10008014FFF723FB0546706A80072DD4FFF777
:101E20001DFB401B0228F7D9CAE02069002840F2B8
:101E30000000C4F2422000F09A8001210160FFF707
:101E40000DFB054630688007D1D4FFF707FB401B28
:101E50000228F7D9B4E00020C4F242200021C0F8E3
:101E60008014FFF7FBFA0546706A800707D5FFF775
:101E7000F5FA401B0228F7D9A2E000F089FD20788E
:101E800040071BD4E5698DB1706800F00C0008288C
:101E90004CD1012D0ED07068216A00F480328A4244
:101EA00008D1616A00F47010884203D1002002B0AA
:101EB000BDE8F081012002B0BDE8F081F069C0000A
:101EC0000BD4F0694FF0010840F08050F061F069E8
:101ED00000F080500190019801E04FF0000847F2B7
:101EE0000007C4F200073868C00510D4386840F411
:101EF00080703860FFF7B2FA054600BF3868C00549
:101F000005D4FFF7ABFA401B6428F7D958E0E56821
:101F1000002D3DD0012D05D0306A052D39D140F07E
:101F200004003062306A40F0010038E00027C4F25B
:101F3000422700203866FFF791FA022D05460BD1A3
:101F40003068800154D5FFF789FA401B02284FF012
:101F50000300F5D9ABE700BF30688001A6D5FFF7D5
:101F60007DFA401B02284FF00300F5D99FE70021BE
:101F70000160FFF773FA0546306880077FF53EAFD2
:101F8000FFF76CFA401B02284FF00300F4D98EE7EC
:101F9000306A20F001003062306A20F004003062C4
:101FA000FFF75CFA002D054641F2883714D000BFD8
:101FB000306A800713D4FFF751FA401BB842F7D9B3
:101FC000032002B0BDE8F081FFF748FA401BB84299
:101FD0004FF003003FF66BAF306A8007F4D4B8F1DE
:101FE000000F3FF44FAFF06920F08050F06149E7F7
:101FF000206AB0F5803F05D17168A26821F40031F4
:10200000114371607168626A21F4741110430843CE
:10201000706001203866FFF721FA044630688001BD
:102020003FF544AFFFF71AFA001B02284FF00300F8
:10203000F4D93CE780B500F005FD80BD10B590F8FF
:102040003C20012A4FF0020231D0012380F83C30BD
:1020500080F83D200268D2F804E0D2F808C00C688D
:102060002EF07003234340F2FF74C4F20004A24236
:10207000536005DCB2F1804F0ED040F2004307E020
:1020800042F60043C4F201039A4205D040F6000331
:10209000C4F200039A4204D149682CF0800319432A
:1020A00091600121002280F83D1080F83C2010460C
:1020B00010BD0000002804BF0120704710B5044681
:1020C00090F83D0028B9002084F83C00204600F03C
:1020D0001FF8022084F83D002068211D00F00EFD4D
:1020E000012084F8460084F83E0084F83F0084F81C
:1020F000400084F8410084F8420084F8430084F8EA
:10210000440084F8450084F83D00002010BD000024
:1021100081B0006840F20041C4F20001884201D061
:1021200001B0704741F21C00C4F20200016841F0A6
:1021300002010160006800F002000090009801B008
:102140007047000090F83D1001291CBF0120704726
:10215000022180F83D10006840F2FF72C168C4F2AD
:102160000002904241F00101C16005DCB0F1804FF6
:102170000ED040F2004107E042F60041C4F20101F6
:10218000884205D040F60001C4F20001884206D121
:10219000816801F00701062904BF0020704701682B
:1021A00041F0010101600020704700000146006815
:1021B00041F21113C26822F00102C260026A1A429F
:1021C00008D1026A40F244431A4203D1026822F065
:1021D000010202600122002081F83D2070470000CA
:1021E00010B5044690F83C0001284FF0020008BFEB
:1021F00010BD012284F83C2084F83D0020684FF691
:10220000777382689A4382600A684F2A0FDC1F2A1C
:1022100022DD202A23D0302A21D0402A4DD14B68FC
:10222000CA68194600F08AFD206840213BE06F2A09
:1022300017DDB2F5005F20D0B2F5805F2AD0702A9A
:102240003BD1D1E9012CCB68614600F0A5FC2068A8
:10225000816841F077011AE00AB1102A2DD11146A8
:1022600021E0502A18D0602A27D14B68CA68194645
:1022700000F076FD2068602115E0D1E9012CCB68E3
:10228000614600F089FC2068816841F480418160EA
:1022900000200BE0002009E04B68CA68194600F0F6
:1022A0004DFD2068502100F083FC0020012184F8BE
:1022B0003D10002184F83C1010BD0120F6E700001D
:1022C000B0B5044690F83C00012804BF0220B0BD20
:1022D0000D464FEAB2010120032984F83C0037D8AB
:1022E000DFE801F0020A12222068294600F068FCAB
:1022F000206850F8181F0EE02068294600F090FC76
:10230000206850F8181F16E02068294600F0BCFC31
:10231000206850F81C1F41F008010160016821F09D
:102320000401016029690FE02068294600F0E0FC03
:10233000206850F81C1F41F400610160016821F41D
:10234000806101602969090202681143016000206F
:10235000002184F83C10B0BD002804BF0120704764
:1023600010B5044690F83D0028B9002084F83C00E0
:10237000204600F01FF8022084F83D002068211D4F
:1023800000F0BCFB012084F8460084F83E0084F88D
:102390003F0084F8400084F8410084F8420084F84B
:1023A000430084F8440084F8450084F83D00002090
:1023B00010BD000070470000FEE700000268516990
:1023C00049054FF000010FD56FF48063536120225F
:1023D000016380F83D2080F83E10026C42F0040258
:1023E000026480F83C100121084670472DE9F04155
:1023F00082B00446C06A1D46164610F5803F0F465F
:1024000018BF012823D12068016841F48071016060
:1024100020464FF0011100223346009500F074F879
:1024200050B120680068C00544BF4FF400702064BC
:10243000032002B0BDE8F081206940F20208B0F547
:10244000804FC0F2010808D107F0FE0018E008280C
:10245000D9D0206B1228D6D0DAE7062000EAD710B0
:102460002168F030086108F10601204632462B460B
:1024700000F09AF818B1012002B0BDE8F081F8B27E
:10248000216832460861204641462B4600F08CF810
:10249000002818BF012002B0BDE8F081F0B581B07E
:1024A00004460068406940071AD415460E464F1C82
:1024B00008E000BF20684069400714D520684069E3
:1024C00040070DD42046FFF779FFC8B9002FF5D09B
:1024D000FEF7C4FF002EEDD0401BB042EED9E9E775
:1024E000002001B0F0BD00202021206384F83D10C1
:1024F00084F83E00216C41F02001216484F83C0006
:10250000012001B0F0BD00002DE9F047DDF820808A
:1025100099461646044601F47F078DB203F1010A7D
:1025200011E000BF20681821B7F5803F08BF1421D3
:1025300040582A4608BF2A461040801AB0FA80F058
:102540004009B04220D020681821B7F5803F08BF6D
:10255000142140582A4608BF2A461040801AB0FA73
:1025600080F04009B0420CD1BAF1000FEBD0FEF779
:1025700075FFB9F1000FD5D0A0EB08004845E2D9AE
:10258000D0E70020BDE8F08700202021206384F8F8
:102590003D1084F83E00216C41F02001216484F854
:1025A0003C000120BDE8F0872DE9F04381B098465A
:1025B0009146044601F47F078DB2561C0DE000BF22
:1025C00020681821B7F5803F08BF142140582A46DB
:1025D00008BF2A461040904228D120681821B7F53C
:1025E000803F08BF142141582A4608BF2A4611409F
:1025F00091420ED0416949050FD4002EEDD0FEF76F
:102600002DFFB9F1000FDBD0A0EB08004845E4D95D
:10261000D6E7002001B0BDE8F083016841F4007105
:1026200001606FF480614161042000E020200021FE
:102630002022216384F83D2084F83E10226C104350
:10264000206484F83C10012001B0BDE8F083000054
:10265000F0B581B004460068406900061AD41546FA
:102660000E464F1C08E000BF20684069000614D5E4
:102670002068406900060DD42046FFF79FFEC8B9C8
:10268000002FF5D0FEF7EAFE002EEDD0401BB04241
:10269000EED9E9E7002001B0F0BD00202021206341
:1026A00084F83D1084F83E00216C41F02001216443
:1026B00084F83C00012001B0F0BD0000B0B584B04A
:1026C00040F2905042F200410024C2F20000C4F2F5
:1026D00001014FF4002201250394CDE90144047364
:1026E0000475C261C0E9001484600561FEF75CF9FD
:1026F00070B90220CDE90145039040F29050C2F23A
:10270000000001A9FEF7BAF8002804BF04B0B0BD6C
:10271000FEF7AEF810B584B040F2C05042F60002A9
:102720000021C2F20000C4F201024FF46023012430
:102730000391CDE9011101730175C361C0E9002165
:1027400081600461FEF730F970B90220CDE90144DF
:10275000039040F2C050C2F2000001A9FEF78EF8CB
:10276000002804BF04B010BDFEF782F880B582B027
:1027700041F21400C4F202000168002241F001019C
:1027800001600068002100F00100019001980B2019
:10279000FFF79EF80B20FFF797F802B080BD00000E
:1027A00070B586B0002541F21800CDE90455CDE999
:1027B0000255C4F20200016841F2000441F0100128
:1027C00001600168C4F2010401F010010191019956
:1027D0000168002241F02001016001684FF40056B9
:1027E00001F0200101910199016841F004010160AB
:1027F000016801F0040101910199016841F00801AB
:10280000016000684FF4005100F008000190019849
:102810002046FEF71DFE01200296CDE903050220A9
:10282000059002A92046FEF705FD06B070BD000028
:1028300080B540F2346045F20041C2F20000C4F2BB
:10284000000141F6802200234FF4804CC0F20602C2
:1028500080E80E00C0E9033CC0E90533C0E9073356
:10286000FEF702FE002808BF80BDFEF701F8000059
:1028700080B540F2886045F60001C2F20000C4F263
:10288000000141F6802200234FF4804CC0F2060282
:1028900080E80E00C0E9033CC0E90533C0E9073316
:1028A000FEF7E2FD002808BF80BDFDF7E1FF000054
:1028B00010B58EB040F2DC6040F200420021C2F25E
:1028C0000000C4F2000241F293130D91CDE90B1107
:1028D000CDE90911CDE90711CDE90511CDE90311C4
:1028E000CDE90111C0E90021C0E902130161816154
:1028F000FFF7E0FB70BB4FF480500A9040F2DC60C1
:10290000C2F200000AA9FFF76BFC18BB40F2DC60C2
:10291000C2F20000FFF720FDE0B92020089040F24D
:10292000DC600024C2F2000008A90994FFF786FBCE
:1029300080B96020CDE9010440F2DC60C2F2000001
:1029400001A9002203940594FFF7BAFC002804BFF4
:102950000EB010BDFDF78CFFFEE70000FEE70000A3
:1029600000F0070080F00703042B28BF04234FF07A
:10297000FF3C03380CFA03F338BF00209943814031
:102980000CFA00F022EA000008437047704700008C
:1029900081B040F20000C2F20000006844F6D3515A
:1029A000C1F26201A0FB0101480A009000BF00983B
:1029B000411E00280091F9D101B070477047000016
:1029C00080B540F63011C2F200010120C1E90000DB
:1029D00040F2C0500222C2F200008A60FDF74EFFB2
:1029E000002808BF80BDFDF743FF000080B540F61A
:1029F0003011C2F2000102200122C1E90002886008
:102A000040F2C050C2F20000FDF738FF002808BFB6
:102A100080BDFDF72DFF000080B540F63011C2F2F9
:102A2000000103200122022381E80D0040F2C05082
:102A3000C2F20000FDF722FF002808BF80BDFDF7AD
:102A400017FF0000B0B501380024B4EB106F1CBFB5
:102A50000120B0BD4EF21005CEF2000568604FF0C7
:102A6000FF300F2100F0A8F90720AC602860204655
:102A7000B0BD000080B5FEF7BBFE80BD70B594B060
:102A80000AAC20462821FDF781FC002501204FF4E7
:102A900080310A90CDE90B150E9002264FF4E0101C
:102AA000CDE91161139020460995CDE90755CDE98F
:102AB0000555CDE90355CDE90155FFF731F9C0B909
:102AC0000F20CDE905064FF480600795CDE9080594
:102AD00005A80221FFF712F858B9022001904FF41F
:102AE0000040039001A8FEF781FF002804BF14B046
:102AF00070BDFDF7BDFE00007047000010B540F24C
:102B0000FF7E0368C4F2000E42F6004C7045C4F22A
:102B1000010C05DCB0F1804F0AD040F2004203E026
:102B2000604505D040F60002C4F20002904203D195
:102B30004A6823F070031343704505DCB0F1804F01
:102B40000AD040F2004203E0604505D040F60002A2
:102B5000C4F20002904203D1CA6823F440731343C5
:102B600023F080024B69D1F800E08C681A4360457D
:102B70000260C462C0F828E002D10969CCF83010C4
:102B8000012141610169C90708BF10BD016921F038
:102B90000101016110BD0000D0F808C011432CF400
:102BA0007F4C41EA032141EA0C018160704700003B
:102BB000826822F07002114341F007018160704782
:102BC00070B5026A036A42F6004E23F00103036205
:102BD000456883690C688E6823F0730322F0020253
:102BE000C4F2010E43EA040C704542EA060208D022
:102BF00070450ED04560C0F818C049684163026254
:102C000070BDCB6822F00C0223F004031A43704518
:102C1000F0D125F44073D1E9056533431D43E9E75D
:102C200070B5026A036A42F6004E23F01003036295
:102C3000456883690C688E6823F4E64322F020021D
:102C4000C4F2010E43EA042C704542EA061208D091
:102C5000704510D04560C0F818C0496881630262B1
:102C600070BDCB686FF0400422F0C00204EA031389
:102C70001A437045EED125F44063D1E9056543EA76
:102C8000860343EA8505E5E770B5026A036A42F602
:102C9000004E23F4807303624568C3690C688E6834
:102CA00023F0730322F40072C4F2010E43EA040C11
:102CB000704542EA062208D0704510D04560C0F841
:102CC0001CC04968C163026270BDCB6840F2FF441A
:102CD0001B0222F44062A3431A437045EED125F44F
:102CE0004053D1E9056543EA061343EA0515E5E7D4
:102CF000B0B5D0F820E0026A22F480520262446843
:102D0000C3690A6823F4E6438D6843EA022C42F65D
:102D100000432EF40052C4F20103984242EA053304
:102D200004D14A6924F4804545EA82144460C0F81D
:102D30001CC0496801640362B0BD0000D0F820C027
:102D4000036A23F001030362836923F0F00343EA7B
:102D500002122CF00A0319438261016270470000DD
:102D6000D0F820C0036A23F010030362836923F4C0
:102D7000704343EA02322CF0A00343EA011182615E
:102D800001627047FEE70000002848BF704700F06E
:102D90001F01012202FA01F14EF200124009CEF2A7
:102DA000000242F8201070474EF60C50CEF20000A0
:102DB0000068C0F3022070474EF6145300F00F0273
:102DC000CEF2000309011A4400F16043B0F1FF3F65
:102DD000C8BF03F564421170704700004EF60C51F5
:102DE000CEF200010A684FF6FF031A4060F30A2290
:102DF00042F0806040F0FD70086070472DE9F04FB0
:102E000081B04FF40070FDF7E7F940F63C1AC2F2CA
:102E1000000A0446DAF80000802100EBD07045106B
:102E2000A1EB600B40F27000C2F2000040F2247986
:102E300000EB4B0048F26476C2F20009A0F58078FE
:102E40000027C0F60006C9F8004006E0013744F844
:102E5000040B802F06F1040610D0AF424FF00000A3
:102E6000F4DB5F45F2DA38F8170001F0ABFF3168A8
:102E700002460846114601F0B9FFE7E740F2783410
:102E800040F29035D9F80010C2F20004C2F20005F9
:102E900020462A4600234FF0000801F02FFB40F2A5
:102EA0000400C2F20000008840F2060145F2F80377
:102EB000C2F2000140F20802C0F6000341F22427EA
:102EC0000988C2F2000200FB0730128840F20C634E
:102ED00001FB030040F2287602EBC211C2F20006A9
:102EE00000EB810128463246402300F0ABFD40F262
:102EF0007815C2F20005204631462A46012301F02A
:102F0000FDFAD9F80000FDF796F9DAF800704FF4F1
:102F10008176A6EB4700FDF75FF940F27414C2F228
:102F20000004802F20601FDC05EB8700A0F108055E
:102F300055F8040F01F02AFFC0F303202168DAF8E6
:102F40000020A1EB420101F81700286801F01EFFE4
:102F50002168DAF80020A1EB420101EB470148703B
:102F6000781E01377F28E3DBBAF800002268A6EB61
:102F7000400083B240F234600A27C2F20000C02150
:102F80000097FEF739FB2068FDF755F940F62C1045
:102F9000C2F20000C0F8008001B0BDE8F08F000070
:102FA000F0B5002908BFF0BD002300BF02EB430CC1
:102FB00032F813E0BCF802C02EF0030E2CF0030C24
:102FC00050F80E5050F80C6000EB0E0400EB0C07AC
:102FD00040F80E6040F80C507E68656802338B4202
:102FE00066607D60E2D3F0BD2DE9F041048898462B
:102FF000074616460D4654B1012E08D1281F21461A
:1030000050F8082F013982F000420260F8D1FF2CFD
:103010000CDDB4F5806F10DBB4F5805F4DD0B4F5F6
:10302000006F11D0B4F5806F1AD01DE03F2C13DC77
:10303000102C15D0202C07D016E0B4F5807F03D0DB
:10304000B4F5007F39D00FE03846294600F0BAF9D0
:10305000B8F1000F0BD10FE0402C2ED0802C03D103
:103060003846294600F034F8B8F1000F04D0B98989
:10307000BA682846FFF794FF012E1CD1204601F0C4
:10308000A1FE01464FF07E5001F0BEFD002C08BFAE
:10309000BDE8F0810646083D55F8081F304601F0AE
:1030A000A5FE6968286081F00041304601F09EFE6F
:1030B000013C6860F0D1BDE8F0817A68284621467D
:1030C000012300F0ADFDB8F1000FD0D1D4E700002E
:1030D0002DE9F04F9DB00388049101EB8304426811
:1030E00000210190B1EBD30F4FEA5300029000F0A2
:1030F000598102980499DF0801EB8006184401EB1E
:103100008000159601F1080608304FF0000903967B
:1031100014901C94169200BF1598DDF80C8013973C
:1031200000EB090C0746149804EB090A08EB0904A4
:1031300000EB0901034654F8040C049E0D9058F866
:10314000090006EB09050690E868129511901C9895
:1031500056F809E050F80950CDF814E00E955046A5
:10316000CDF86CA0D0E902B0DAF804A0079057F8C7
:10317000090019911890DCF80400CDF820C00A90DD
:10318000DCF808000C90DCF80C00109051F8080CEA
:10319000179051F8040C099053F809000B904868F7
:1031A00029460F9002EB09001A90704601F0CAFC04
:1031B0000D9F46F809003846514601F0C3FC44F81B
:1031C000040C069C5946204601F0BCFC119E079D4C
:1031D00048F809003046294601F0B4FC1299C8604D
:1031E00005980E9901F0CEFE0E903846514601F03A
:1031F000C9FE0D902046594601F0C4FE129030469B
:10320000294601F0BFFE1190DDE9171001F09AFC8C
:103210001599DDF82880DDF824B041F80900404612
:10322000594601F08FFC089CDDF830A00B9F6060D0
:103230005046394601F086FC109D0F9EA06028463E
:10324000314601F07FFCE060DDE9170101F09AFEF4
:1032500008905846414601F095FE0A90384651467E
:1032600001F090FE18903046294601F08BFE169929
:103270000E9E51F809701A9917904C6830463946DD
:1032800001F0B4FD0D9D10902846214601F0AEFDE1
:1032900083462846394601F0A9FD8246304621463C
:1032A00001F0A4FD80461098594601F04BFC1C9992
:1032B00041F809005046414601F064FE1B99089D03
:1032C00048602846214601F091FD0A9E804630461E
:1032D000394601F08BFD82463046214601F086FDDD
:1032E00004462846394601F081FD074640465146CE
:1032F00001F048FE199D214645F8080C384601F0BA
:1033000021FC45F8040C1A98129ED0E9024530467B
:10331000214601F06BFD119F82463846294601F097
:1033200065FD80463846214601F060FD8346304603
:10333000294601F05BFD06465046414601F002FC7D
:103340001B9F3146B860584601F01CFE189EF8607D
:103350003046294601F04AFD179F804638462146EF
:1033600001F044FD82463846294601F03FFD0546FE
:103370003046214601F03AFD04464046514601F0F0
:1033800001FE149941F8090020461C9C294601F0D1
:10339000D9FB139F169A1999013F09F1100948604A
:1033A0007FF4BAAE029D04982946022300F038FC4F
:1033B0000198294642682046022300F031FC1DB0E6
:1033C000BDE8F08F2DE9F04FADB0028889464FEA95
:1033D000520A01EB8A014FEA8A0302904068229365
:1033E00001EB8A0303EB8A08069090082C92CDF833
:1033F00014800391019051F82A40D9E900568B4678
:10340000284621461F4601F09DFB2690284621466E
:1034100001F0B8FD7C6805462790304621460497A8
:1034200001F090FB24903046214601F0ABFDDBF823
:103430000410064625902846239101F083FBD8F816
:103440000440214601F09EFD59F82A802B90304619
:10345000414601F097FD57F82AB0594601F072FB3A
:10346000269F2A903846414601F08CFD594601F0CE
:1034700089FD249D239E29902846314601F082FD36
:10348000214601F07FFD28902798314601F07AFD12
:10349000214601F057FB27902598414601F052FB49
:1034A000594601F06FFD25903846414601F04AFB30
:1034B000594601F047FBC9F800002846314601F0A3
:1034C00041FB214601F03EFBC9F804002B982A99E4
:1034D00049F82A000398DDF888C0416029994FEA2D
:1034E000CA0340F82A1004982899002541602799BA
:1034F000002440F82A1005982599CDF88C90416059
:103500002C996FF0010000EB9100400827900AEB26
:103510004A006FF00701870001EB800001EB0A16FB
:103520002C906FF003002A9600EBCA0100EB8A0092
:1035300000262691259000BF0699169688191C90A2
:103540002398159582194E1921442191C1191F966E
:10355000149417972B911893C118CDF888C0249212
:10356000D2E902458E6800EB0C0B2091CF68204613
:10357000314601F0E7FA82462046314601F002FD6D
:1035800006461A902846394601F0DCFA289028466B
:10359000394601F0F7FCCDF8A4B0DBE9029480468F
:1035A0003046214601F0CEFADDF8ACB0DBE9025737
:1035B000394601F0E7FC1B904046494601F0E2FC29
:1035C000294601F0BFFA19905046494601F0DAFC4D
:1035D000294601F0D7FC1E902898214601F0D2FC24
:1035E000394601F0CFFC1D901A98214601F0CAFC23
:1035F000394601F0A7FA1A904046494601F0A2FA6E
:10360000294601F0BFFC83465046494601F09AFA2C
:10361000294601F097FA249CA0602998C16828984F
:1036200001F090FA2B99C96801F08CFA2799E060B3
:10363000002900F07F81DDF88CA02A980AEB0009B0
:103640002C98CDF84C900AEB000601462C9025985A
:103650005AF801500AEB000757F8044C26982946FF
:103660000AEB0008204611960A9701F06BFA2490A5
:103670002046294601F086FC3C6876680746109093
:1036800020463146CDF848B001F05CFA099020465A
:10369000314601F077FCD8F80020D9F8041006462E
:1036A0000F9010464546CDF8A0800792089101F092
:1036B00069FC04463846214601F044FA58F8049C57
:1036C0000C903046494601F05DFCDDF8A8B0554647
:1036D0005AF80BA0514601F035FA0B902498494650
:1036E00001F050FC514601F04DFCDDF82480079EAE
:1036F0000E904046314601F045FC089F394601F0E6
:1037000041FC10990D90204601F03CFC1090504671
:10371000494601F037FC0F9901F034FC0F90404608
:10372000314601F00FFA394601F00CFA0A9C20608C
:10373000289850F8041C249801F004FA55F80B104E
:10374000AB4601F0FFF944F8040C1C981B9ED0E92D
:1037500002453046214601F049FB199F8046384614
:10376000294601F043FB82463846214601F03EFBE4
:1037700081463046294601F039FB0646404651460F
:1037800001F0E0F9299F3146B860484601F0FAFBA4
:10379000F8600B9F2946384601F028FB0C9E8046B6
:1037A0003046214601F022FB81463046294601F091
:1037B0001DFB05463846214601F018FB04464046ED
:1037C000494601F0DFFB289E29463060204601F083
:1037D000B9F946F8040C1F981E9ED0E904543046EF
:1037E000294601F003FB1D9F80463846214601F023
:1037F000FDFA82463846294601F0F8FA81463046FD
:10380000214601F0F3FA06464046514601F09AF986
:10381000209F3146B860484601F0B4FBF8600D9F28
:10382000284687F0004101F0E1FA0E9E80463046BE
:10383000214601F0DBFA81463046294601F0D6FAEE
:1038400005463846214601F0D1FA0446404649462D
:1038500001F098FB119948602046294601F092FB3F
:103860002C99DDF868A04BF801002198D0E90645B5
:103870005046214601F0BAFA129E8046304629464B
:1038800001F0B4FA07463046214601F0AFFA81460E
:103890005046294601F0AAFA06464046394601F04C
:1038A00051F92B9F3146B860484601F06BFBF86038
:1038B0000F9F2946384601F099FA109E80463046FF
:1038C000214601F093FA81463046294601F08EFAEE
:1038D00005463846214601F089FA044640464946E5
:1038E00001F050FB139948602046294601F02AF95F
:1038F0002A99DDF888C04BF801002798189B0138F9
:1039000027900846A1F108002A902C98179F0838A4
:103910002C902698149C083826902598159D169E64
:1039200008380CF1080C08330837183410350836FD
:10393000259001E61C981B9FD0E902453846214698
:1039400001F054FA199E81463046294601F04EFA9C
:1039500082463046214601F049FA04463846294657
:1039600001F044FA05464846514601F0EBF8299E1D
:103970002946B060204601F005FBF0601F981E9EAE
:10398000D0E904453046214601F030FA1D9F8146BA
:103990003846294601F02AFA82463846214601F087
:1039A00025FA04463046294601F020FA05464846E5
:1039B000514601F0C7F8209E2946B060204601F02C
:1039C000E1FAF06021981A9FD0E906453846214671
:1039D00001F00CFA81465846294601F007FA0646DE
:1039E0005846214601F002FA04463846294601F0BD
:1039F000FDF905464846314601F0A4F82B9E2946BC
:103A0000B060204601F0BEFA019DF0602398069A4E
:103A10002946042300F004F9029C039862682946B1
:103A2000042300F0FDF8626804982946042300F09E
:103A3000F7F8626805982946042300F0F1F82DB0E4
:103A4000BDE8F08F2DE9F04F89B00027B7EB930F59
:103A500000F0B28000939B08A0F12005A1F120089E
:103A6000A2F1200A58F8204F55F8200F214608935C
:103A7000029001F0BBF90490E868D5E90196059041
:103A8000286949460790204601F0B0F90190D8E92D
:103A900001B40394D8E9037059460690484601F0F2
:103AA000A5F90146049801F06DFA049030462146CC
:103AB00001F09CF904460298594601F097F9014635
:103AC000019801F03FF883463046394601F08EF9FF
:103AD00081463846059F394601F088F9014620465F
:103AE00001F050FA049904904AF8201F03986C6979
:103AF000394601F07BF90146484601F023F8CAF83F
:103B000004B0DDF81C90DDF818B005904846594621
:103B100001F06CF9D8F8146007465846214601F0C8
:103B200065F9834604983146CAF808000598CAF832
:103B30000C00204601F05AF90146384601F022FAFD
:103B400006904846314601F051F90146584600F0CA
:103B5000F9FFD5E906670790D8E9064B30462146BC
:103B600001F044F981462046394601F03FF9044608
:103B700006985946CAF81000384601F037F9014650
:103B8000484601F0FFF907463046594601F02EF944
:103B90000146204600F0D6FFDDE90713013BCAE9E4
:103BA0000517CAF81C007FF45DAF009B05F12000EB
:103BB00008F120010AF1200213F0030B2DD0A0F12F
:103BC0000804A1F10806A2F1080800BF54F808AFE4
:103BD00056F8081FD4F8049077685046089101F011
:103BE00005F905464846394601F000F901462846E0
:103BF00001F0C8F948F8080F5046394601F0F6F8C8
:103C000008990546484601F0F1F8294600F09AFF68
:103C1000BBF1010BC8F80400D8D109B0BDE8F08FA2
:103C20002DE9F04FB5B0CDE90232009004300B46DB
:103C300001901891DC084FEAC409A9EBD300C00039
:103C4000349004EB44000201209204EB8402D20081
:103C50001F922201DDF80480DD0067011B924FEA0C
:103C6000C00B00220594CDE919531E97CDE91C9B8A
:103C700008EB070B58F8044C5BF8046C20463146FF
:103C8000339200F05FFF82462046314601F07AF918
:103C900008EB0901319151F8046C1F992E904144B1
:103CA00051F8047C32913046394600F04BFF814692
:103CB0003046394601F066F91B992C9008EB010259
:103CC000209952F8046C414451F8047C2A91304602
:103CD0003946299200F036FF05463046394601F054
:103CE00051F91D992D904144309151F8046C34994B
:103CF0003046414451F8047C2F91394600F022FFB0
:103D000004463046394601F03DF927905046294691
:103D100001F038F925905046294600F013FF05467A
:103D20004846214601F02EF926904846214600F0EB
:103D300009FF04462846214600F004FF48F8040C19
:103D40002846214601F01EF91E99D8F8005058F86F
:103D500001604BF8040C2846314600F0F3FE04469F
:103D60002846314601F00EF91C992B9058F8015065
:103D70001F99284658F80160314600F0E3FE83465B
:103D80002846314601F0FEF8DDF86C90209958F88D
:103D9000095058F8016024902846314600F0D2FEC0
:103DA00082462846314601F0EDF81D99289058F8D2
:103DB00001503499284658F80160314600F0C2FE9F
:103DC00007462846314601F0DDF82390204651464B
:103DD00001F0D8F805462046514600F0B3FE0446EF
:103DE0005846394601F0CEF806465846394600F0A6
:103DF000A9FE07462046394600F0A4FEC8F8000098
:103E00002046394601F0BEF81E99259C48F801006D
:103E10002046314600F096FE299941F8040C2046D0
:103E2000314601F0AFF82A99269C41F8040C284647
:103E3000214601F0A7F848F809002046294600F07D
:103E400081FE20992C9C279D48F801002046294698
:103E500001F098F840F2F349C3F63579494600F08D
:103E6000C5FF82462046294600F06CFE494600F018
:103E7000BDFF249C239F05462046394601F082F869
:103E8000494600F0B3FF06462046394600F05AFE88
:103E9000494600F0ABFF2E9C07462046514601F0F4
:103EA00071F883462046514600F04CFE2D9C824618
:103EB0002046294601F066F82E902046294600F05B
:103EC00041FE2B9C2C902046314601F05BF82D9052
:103ED0002046314600F036FE289D044628463946E5
:103EE00001F050F806462846394600F02BFE0746FA
:103EF0005046394600F026FE3199DDF8709041F8C1
:103F0000040C5046394601F03DF82F9941F8040C55
:103F10005846314600F016FE329941F8040C5846D6
:103F2000DDF874B0314601F02DF830992C9D41F840
:103F3000040C2046294601F025F848F809002846D7
:103F4000214600F0FFFD34992D9D2E9C48F801007C
:103F50002846214601F016F81F9948F8010020462E
:103F6000294600F0EFFD339A1A9BDDE918151E9FD4
:103F70001A4448F80B008A42A844FFF479AE402B5B
:103F8000C0F0B9820298009E80B204900598002487
:103F9000C0EBC000C0000125099000BF0498039B3E
:103FA000044453F834004FEA0418179053F80800FB
:103FB00004EB4402169053F83200610115905858F2
:103FC0004FEAC20C149004EB84004FEAC00E53F881
:103FD00030001201139098584FEAC4091290C4EBB4
:103FE000C4000894C40053F830000696119009F1FB
:103FF000040018580795109008F1040018580F9005
:104000000CF1040018580E90081D18580D900EF170
:10401000040018580C90101D18580B90201D1858AB
:1040200033460A90D8192E9534932F908468D3E99B
:10403000026021462890304600F084FD80463046DC
:10404000214600F09FFF34991C9A114432918C68EC
:1040500034991F9A01EB0209D9F80850CDE92B09D0
:104060002046294600F06EFD82462046294600F093
:1040700089FF34991B9A2990114430918C683499A6
:10408000209A204611448D683191294600F05AFD4E
:1040900007462046294600F075FF3499099A8B445B
:1040A0003499DBF8084011448D6833912A902046FA
:1040B0002946CDF8B4B000F045FD06462046294615
:1040C00000F060FF26904046394600F05BFF2190EB
:1040D0004046394600F036FD05465046314600F070
:1040E00051FF23905046314600F02CFD06462846ED
:1040F000314600F027FD349988602846314600F0AB
:1041000041FF2F99289CCD6822902046294600F037
:1041100019FD06462046294600F034FF3299D9F8A9
:104120000C40CF6828903846214600F00BFD05462C
:104130003846214600F026FF30992590CC68319909
:104140002046CF68394600F0FDFC814620463946BE
:1041500000F018FF3399DBF80C40CF682790204619
:10416000394600F0EFFC82462046394600F00AFF4F
:1041700024903046494600F005FF804630464946C7
:1041800000F0E0FC06462846514600F0FBFE0446DF
:104190002846514600F0D6FC219F05463846214668
:1041A00000F0D0FC81463846214600F0EBFE21901D
:1041B0003046294600F0C6FC3499C860304629468E
:1041C00000F0E0FE239C05464046214600F0DAFE62
:1041D00083462046414600F0B5FC149EDDF88880F9
:1041E00023903046414600F001FEDDF834A004463D
:1041F0005046294600F0FAFD07463046294600F0B1
:10420000F5FD05465046414600F0F0FD06462046C5
:10421000394600F097FC2F9C3146A060284600F0FC
:10422000B1FE169EE0603046494600F0DFFD0F9F6C
:1042300004463846594600F0D9FD054630465946F1
:1042400000F0D4FD06463846494600F0CFFD07464B
:104250002846214600F076FC309C3946A060304666
:1042600000F090FEE060129E219C3046214600F056
:10427000BDFD0B9F239D80463846294600F0B6FDC4
:1042800081463046294600F0B1FD064638462146B3
:1042900000F0ACFD07464846414600F053FC319C17
:1042A0003946A060304600F06DFEE060299C269DF6
:1042B0002046294600F066FE40F2F346C3F6357606
:1042C000314600F093FD80462046294600F03AFC36
:1042D000314600F08BFD259C249D814620462946D1
:1042E00000F050FE314600F081FD07462046294689
:1042F00000F028FC314600F079FD2B9C0646204654
:10430000414600F03FFE82462046414600F01AFC3E
:104310002A9D04462846494600F034FE2990284646
:10432000494600F00FFC289D81462846394600F09A
:1043300029FE2A902846394600F004FC279D0746AE
:104340002846314600F01EFE80462846314600F0E1
:10435000F9FB06462046314600F0F4FB8346204632
:10436000314600F00FFE2B905046414600F0EAFB2C
:1043700030905046414600F005FE3190384649469F
:1043800000F000FE82464846394600F0DBFB2A9DDD
:10439000299C80462846214600F0F4FD2F902046B7
:1043A000294600F0CFFB179C81462046594600F075
:1043B0001DFD109E05463046514600F017FD07468C
:1043C0002046514600F012FD044630465946DDF8BD
:1043D00074B000F00BFD06462846394600F0B2FBEB
:1043E000329D3146A860204600F0CCFD119E2B9CEA
:1043F000E8603046214600F0F9FC0A9F82463846C4
:10440000414600F0F3FC05463046414600F0EEFC24
:1044100006463846214600F0E9FC07465046294644
:1044200000F090FB339C3946A060304600F0AAFDB6
:10443000E060139E309C3046214600F0D7FC0C9F74
:10444000DDF8BCA080463846514600F0CFFC05465A
:104450003046514600F0CAFC06463846214600F078
:10446000C5FC07464046294600F06CFB2C9C3946AB
:10447000A060304600F086FDE060159E319C30461D
:10448000214600F0B3FC0E9F80463846494600F0B6
:10449000ADFC05463046494600F0A8FC06463846C5
:1044A000214600F0A3FC07464046294600F04AFB9F
:1044B0002D9C3946A060304600F064FD2E9D1A9A6E
:1044C000349B1899E06019981E9F15448D4203444F
:1044D000FFF4A8AD079D0598069E0135089C85420E
:1044E00006F10806FFF45AAD0298059BC0003F2A6A
:1044F00002903FF69FAB35B0BDE8F08FF0B581B0CC
:104500000546008A14460F46400828806BB12846AD
:10451000394622461E4600F001FA28462146324618
:104520000123FEF761FD01B0F0BD284639460022A7
:104530000123FEF759FD28463946224600F076FA57
:1045400001B0F0BD4A0802804022B2EB510F018257
:104550001EBFFF2040B270473821818145F286019D
:1045600048F66812C0F60001C0F60002C0E9012159
:1045700048F66831C0F600014161002040B2704742
:104580002DE9F041FEF71CFA40F2C054C2F20004DB
:104590002046FCF7D9FB20466421FCF70FFB2046A0
:1045A000FCF7FEF940F25557B84201D200220BE069
:1045B00040F2C050C2F20000FCF7F2F940F6AA2126
:1045C0000122884288BF022240F2701540F204089E
:1045D000C2F2000548F66411C2F20008C0F60001FC
:1045E0002846A8F80020FBF74DFE40F2C054C2F266
:1045F00000042046FCF7B4FC01200621012600F04F
:1046000099F8284600F014F9FEF7F0F92046FCF777
:104610009BFB20466421FCF7D1FA2046FCF7C0F949
:10462000B84201D200260AE040F2C050C2F20000B7
:10463000FCF7B6F940F6AA21884288BF022640F26C
:10464000C05440F20607C2F20004C2F2000720463E
:104650003E80FCF785FC40F628153A88C2F200053A
:1046600048F66411C0F600012846FBF70BFE012056
:104670000E21012600F05EF8284600F0D9F8FEF77A
:10468000CBF92046FCF760FB20466421FCF796FA44
:104690002046FCF785F940F25551884201D20026A8
:1046A0000AE040F2C050C2F20000FCF779F940F68F
:1046B000AA21884288BF022640F2080540F2C05075
:1046C000C2F20005C2F200002E80FCF749FC40F661
:1046D00040142A88C2F2000448F66411C0F60001B2
:1046E0002046FBF7CFFD0220072100F023F82046EB
:1046F00000F09EF8B8F8000045F2F8033988C0F6DB
:10470000000341F2242700FB07302A8840F20C63A3
:1047100001FB030002EBC21100EB8100D0F80002A4
:1047200000F034FB40F63C11C2F200010860BDE825
:10473000F081000080B501F1400242F080020128C2
:1047400008BF81F08002D0B200F02EF880BD0000DA
:1047500080B5332000F028F8322000F025F8322010
:10476000FCF754FD282000F01FF83220FCF74EFD26
:10477000012000F019F83220FCF748FD062000F077
:1047800013F83220FCF742FD0C2000F00DF8322027
:10479000FCF73CFD022000F007F83220FCF736FD64
:1047A000802000F001F880BD80B582B000F0F001FB
:1047B000000101F10C0208318DF8051000F10C0127
:1047C00008308DF8070040F288608DF804208DF8DD
:1047D00006104FF0640CC2F2000001AA4E2104231F
:1047E000CDF800C0FCF708FF02B080BD80B582B0F4
:1047F00000F0F001000101F10D0209318DF8051002
:1048000000F10D0109308DF8070040F288608DF845
:1048100004208DF806104FF0640CC2F2000001AACB
:104820004E210423CDF800C0FCF7E6FE02B080BDA7
:1048300010B50178002908BF10BD441EC8B2FFF7AB
:10484000D5FFA17801340029F8D110BDFCF7DEFFB7
:10485000FEF714F9FDF7A4FFFDF788FFFDF72EFF23
:10486000FEF726F8FDF7E4FFFDF754FFFEF700F82A
:10487000FFF76EFF01200121FFF75CFF22A0FFF789
:10488000D7FF01200A21FFF755FF21A0FFF7D0FF36
:1048900002200021FFF74EFF1EA0FFF7C9FF40F2E4
:1048A0007830C2F200008021FFF74CFEFFF768FE6F
:1048B00040F63C1840F2905440F2700540F2DC663D
:1048C00040F62C17C2F20008C2F20004C2F2000542
:1048D000C2F20006C2F20007D8F800002946C0F173
:1048E00081022046FCF7A0FA3046FDF72BFC00BF02
:1048F000FFF746FE38680128FAD13046FDF756FC2E
:10490000FEF77CFAE8E700BF424153530000000085
:104910004D4944005452454D420000002DE9F04FEE
:1049200087B0D1E90067B0F800900D46D0F8148048
:10493000304639461446A9F1010A00F003F94FF058
:104940007C5100F053FA20603046394600F01AFBE3
:104950004FF07C5100F04AFABAF1000F606061D06C
:1049600005EBCA00021DA5F1080BC9F10001A8F171
:104970000809A4F1080800BFCDE9052152F8041C7C
:104980001768DBF81000029104970390DBF814A07D
:10499000D9E9044500F0F6FA06463846514600F0DB
:1049A000D1F807463046214600F020FA01903846FB
:1049B000294600F01BFA00903046294600F016FA0E
:1049C00005462046394600F011FA0446DDE90201A9
:1049D00000F0B8F8019900F0D5FA009900F0D2FA89
:1049E0004FF07C5100F002FA0499C8F810005046CC
:1049F00000F0C8FA294600F0A5F8214600F0C2FAF6
:104A00004FF07C5100F0F2F9DDE90521C8F81400FF
:104A10000131083A0BF1080B09F10809481C08F1AB
:104A20000808A9D107B0BDE8F08F00002DE9F04FCC
:104A300089B0D0F81490B0F80080D1E900060C4697
:104A40000146154600F07EF807463046314600F034
:104A500079F806463846314600F074F84FF07C513C
:104A600000F0C4F928603846314600F08BFA4FF068
:104A70007C5100F0BBF9686004EBC800A5F10806A2
:104A8000A9F10802C8F10001A4F1080AA0F1040884
:104A9000CDE90626089158F8040CD8F80040DAF859
:104AA0001010039005940291DAF81470D2E9045BB7
:104AB00000F068FA06462046394600F043F8814681
:104AC0003046294600F092F901903046594600F0F0
:104AD0008DF904902846494600F088F90546484675
:104AE0005946079E00F082F90446DDE9021000F005
:104AF00029F8019900F026F8214600F023F84FF03C
:104B00007C5100F073F905993061384600F03AFAAB
:104B1000049900F017F8294600F034FA4FF07C5160
:104B200000F064F90899069A01317061083608327C
:104B30000AF1080A481CA8F10808A9D109B0BDE883
:104B4000F08F000090EA010F48BF81F0004100F1B2
:104B50002082421A3CBF801A89184FEAD052A2EB39
:104B6000D1534FF07F4C1CEA410F18BF9CEA026FF3
:104B700000F03B804FF0004C4CEA00204CEA012151
:104B800021FA03FC10EB0C0C1ED202F1FF325FEA9B
:104B90001C2040EBC25038BF70471CF07F0F4FEA1B
:104BA000400C18BFBCF17F4F38BF7047C3F12003E2
:104BB000994008BF20F00100BCF17F4F38BF70471B
:104BC000A0F1C04000F0D9B94FEA3C00000A40EB28
:104BD000C25028BF1CF0FF0F4FEA400CE6D018BFB0
:104BE000BCF17F4F38BF7047EAE79CEA026F05D0FF
:104BF00010EA5C0F08BF00F00040704710B500F0ED
:104C000076F900BF64FBBE3E4FF47F0C1CEAD01265
:104C10001EBF1CEAD11392EA0C0F93EA0C0F00F0AE
:104C2000858090EA010F48BF42F4807240F4000C86
:104C300041F400002CF07F4120F07F4000B5A2EB52
:104C4000030281420FF2081CACEB504E9EF800E0CC
:104C5000C0F100004FEA4E0E00FB0EFC38BF4900C9
:104C60004FEA2C1C0CFB0EF34FEACE1E0EEB635EDC
:104C70004FEA112C0EFB0CFC4FEAC1214FEA1C53EA
:104C800000FB031102F5FA024FEA112C0EFB0CFC9B
:104C90004FEA01314FEADC4C00FB0C1142EB22429F
:104CA000C14228BF09184CEB03335DF804EB10EB4D
:104CB000410143EBC250B2F57C0F38BF704729D594
:104CC00012F0F00F1CBF00F1C04000F00040704730
:104CD000008182838485868788898B8C8D8E8F91D5
:104CE0009293959697999A9C9D9FA0A2A3A5A7A8F9
:104CF000AAACAEB0B2B3B5B7B9BCBEC0C2C5C7C925
:104D0000CCCED1D4D7D9DCDFE2E6E9ECF0F3F7FA88
:104D1000FE0000004FEA400C0CF1807CBCF17E4F9D
:104D200028BF7047B0F1C04000F027B90CEAD1139A
:104D300090EA010F48BF42F48072624538BF634574
:104D400007D213F47F0F16D080EA010000F0004074
:104D5000704710B500F0CBF8097EFC3E00F005B8B6
:104D600080EA010000F00040704780EA010000F096
:104D7000004000F002B912F47F0F04BF02487047F0
:104D800080EA010000F0F9B80000C07F41000B0E7E
:104D9000D3F19E0208D950F400034FEA032323FA0B
:104DA00002F048BF4042704710B500F0A0F800BFC5
:104DB00049922480002070476FF0004282EA200070
:104DC00070470000B0FA80F310FA03F2C3F19D03BC
:104DD0000AD0D90501EB1220530638BF704700F105
:104DE000010008BF20F00100704700004FF47F0C65
:104DF0001CEAD0121EBF1CEAD11392EA0C0F93EAF0
:104E00000C0F00F0478090EA010F48BF42F4807217
:104E10004FF0004C4CEA00204CEA012102EB030267
:104E2000A0FB0113A2F50002002918BF43F0010303
:104E30005B0028BF4FEA330342EB22425FEA132CA8
:104E40004CEBC2502EBFBCEB436FB2F57C0F7047EA
:104E50004FEA036CBCF1004F08BF20F00100B2F52F
:104E60007C0F38BF70470BD582F0FF0212F5803FF0
:104E7000C8BF704700F1C040D8BF00F00040704785
:104E800000F5000C5FEA4C0C48BF7047B0F1C04021
:104E900000F073B80CEAD11390EA010F48BF42F456
:104EA0008072624538BF634504D280EA010000F099
:104EB0000040704710B500F01AF800BF8900013EAD
:104EC00000F007B800F009B85FEA410C5FEA1C6C1B
:104ED00008D080EA010000F050B85FEA400C5FEAB9
:104EE0001C6CF6D14FF00040A0F5800070470EF129
:104EF000020E2EF0030E5EF8044B244204D44FEA57
:104F00004102B2F17F4F11D84FEA4003B3F17F4F16
:104F10000CD80ED14FEAD07C0CEB4C0C0CF1020CEF
:104F2000B2F17F4F08BF4CEBD17C04E04FF0080C8E
:104F300001E04FEAD17C0CEB4C0324FA03F404F0BB
:104F40000704B4F1040C06D20EEB840CBDE810404B
:104F50004CF0010C6047DFE80CF0070802024FF04C
:104F60000040A0F5800010BD0846420018BFD2F1F5
:104F7000807288BF00F0004010BDFF2141EAD05090
:104F8000C005704790EA010F48BF81F000413FF52E
:104F9000E0AD421A04D882F00042A0EB02001144B6
:104FA0004FEAD052A2EBD1534FF07F4C1CEA410F95
:104FB00018BF9CEA026F4AD04FF0004C4CEA002028
:104FC0004CEA012121FA03FCB0EB0C0C0FD412F0D7
:104FD000FE0F36D05FEA4C001DD5001240EBC250E8
:104FE00038BF70471CF03F0F18BF70470BE05FEAF7
:104FF0001C20A2F1010240EBC25038BF70471CF0E8
:105000007F0F18BF7047C3F12003994014BF401EA3
:1050100020F0010070474FEA1223800808BF704754
:10502000B0FA80FCA2EB0C02CCF1280C60FA0CF078
:1050300093EA122F04BF00EBC25070474FEAC370CF
:105040007047130A5FEADC1008BF7047F6E79CEA76
:10505000026F04D010EA5C0F08BF0020704710B543
:10506000FFF745FF40DFF63E81F00040704700004B
:105070000000000000000102030406070809000008
:105080000000010203040800400010008000180026
:10509000C0002000000128004001300080013800DD
:1050A000C001500088005800C80060000801680076
:1050B0004801700088017800C8019800D000A00065
:1050C0001001A8005001B0009001B800D001E0002C
:1050D0001801E8005801F0009801F800D8012801F3
:1050E00060013001A0013801E0017001A8017801E0
:1050F000E801B801F00100000000003F00000000DE
:1051000061C4FE3EA9BD48BDCB14FB3EACC5C7BDC6
:1051100005FAF43E1BA014BE6683EC3E28EF43BEA6
:10512000A4C5E13ED15A71BE38DBD43ED6398EBE1D
:10513000FCE3C53EA567A2BEE604B53EE604B5BEE7
:10514000A567A23EFCE3C5BED6398E3E38DBD4BE91
:10515000D15A713EA4C5E1BE28EF433E6683ECBE42
:105160001BA0143E05FAF4BEACC5C73DCB14FBBE74
:10517000A9BD483D61C4FEBE00000000000000BFA4
:10518000A9BD48BD61C4FEBEACC5C7BDCB14FBBE46
:105190001BA014BE05FAF4BE28EF43BE6683ECBE26
:1051A000D15A71BEA4C5E1BED6398EBE38DBD4BE9D
:1051B000A567A2BEFCE3C5BEE604B5BEE604B5BE67
:1051C000FCE3C5BEA567A2BE38DBD4BED6398EBE11
:1051D000A4C5E1BED15A71BE6683ECBE28EF43BEC2
:1051E00005FAF4BE1BA014BECB14FBBEACC5C7BDF4
:1051F00061C4FEBEA9BD48BD000000BF00000000A4
:1052000061C4FEBEA9BD483DCB14FBBEACC5C73DC5
:1052100005FAF4BE1BA0143E6683ECBE28EF433EA5
:10522000A4C5E1BED15A713E38DBD4BED6398E3E1C
:10523000FCE3C5BEA567A23EE604B5BEE604B53EE6
:10524000A567A2BEFCE3C53ED6398EBE38DBD43E90
:10525000D15A71BEA4C5E13E28EF43BE6683EC3E41
:105260001BA014BE05FAF43EACC5C7BDCB14FB3E73
:10527000A9BD48BD61C4FE3E000000000000003F23
:10528000A9BD483D61C4FE3EACC5C73DCB14FB3E45
:105290001BA0143E05FAF43E28EF433E6683EC3E25
:1052A000D15A713EA4C5E13ED6398E3E38DBD43E9C
:1052B000A567A23EFCE3C53EE604B53EE604B53E66
:1052C000FCE3C53EA567A23E38DBD43ED6398E3E10
:1052D000A4C5E13ED15A713E6683EC3E28EF433EC1
:1052E00005FAF43E1BA0143ECB14FB3EACC5C73DF3
:1052F00061C4FE3EA9BD483D0000A0409703F53EB5
:1053000000000000D28AAF3ED28AAFBE000000008B
:10531000A70800BFB891BABEB891BABEAE8105BFAA
:1053200000000000CD75BABECD75BA3E0000000089
:10533000F1D8FF3E616EAF3E616EAF3E9703F53E22
:105340000000000072A8AF3E72A8AFBE00000000CF
:10535000892600BFD1AEBABED1AEBABE357E05BF7A
:1053600000000000A54CBABEA54CBA3E00000000EB
:105370000587FF3E9144AF3E9144AF3E7906F53E2E
:105380000000000090DBAF3E90DBAFBE00000000ED
:10539000685C00BF7DE8BABE7DE8BABE357E05BF59
:1053A000000000008909BABE8909BA3E0000000069
:1053B0001AF7FE3EDBF9AE3EDBF9AE3E2715F53EB1
:1053C000000000006649B03E6649B0BE0000000023
:1053D000FFCC00BF9756BBBE9756BBBE6B6605BFE2
:1053E00000000000D13FB9BED13FB93E000000002F
:1053F0004966FD3E1D3DAE3E1D3DAE3E5D88F53E1F
:105400000000000041D8B13E41D8B1BE000000000C
:10541000024B02BF7384BCBE7384BCBE857804BFDC
:1054200000000000B613B5BEB613B53E0000000084
:1054300021ACF63E7AC6AE3E7AC6AE3E357E053F1C
:105440000000000055DADA3E55DADABE000000004E
:10545000BDC438BFEBAD19BFEBAD19BF860375BF37
:1054600000000000C55939BFC559393F0000000090
:10547000207B853FE868393FE868393FD6747D3F37
:10548000000000003E5C2E3F3E5C2EBF000000008E
:105490008D4775BFADA530BFADA530BF66BD80BF20
:1054A00000000000C6DF3ABFC6DF3A3F0000000040
:1054B000E97F853F65183B3F65183B3F1634813FC8
:1054C0000000000092B2313F92B231BF00000000F4
:1054D000744076BF26532DBF26532DBF011778BFCA
:1054E00000000000AA8033BFAA80333F0000000004
:1054F000C422823F78803B3F78803B3F00000442DB
:105500004223003F000000004FAF8C3EDF8CD2BE34
:10551000F1813DBEA9C1E4BEC5AAF1BE5A48C0BDD5
:1055200034BFB2BE34BFB23E309FCC3D5796003F31
:1055300041B9F53E64904B3E1783D73E220090BEA2
:10554000000000001FF7F5BE309FC4BEF26083BEAE
:10555000C74ADCBE0B7F363EC95AC3BD2F87F53E16
:1055600061AAB93E61AAB93EB550023FC85ECFBD3F
:1055700077F6453E30F6EEBE92588ABE990CCFBE05
:105580000038F6BE00000000DA748CBE2F35D23E23
:10559000E8DD483EA377F23E056D023FDF8BCF3D4D
:1055A000FCE1B73EFCE1B7BE8A55C3BD5E80F5BEE7
:1055B0001841E3BE70433CBE0ED9D0BE338C8B3E47
:1055C000000000000B7F023F4738DD3E7DD0933E58
:1055D0002595F13E362248BE295BC43D7EC9F6BE04
:1055E00030F3ADBE30F3ADBEC45DF5BEC139C33DD1
:1055F000651847BE4754F03E86C6933E7829DD3E87
:1056000045DA023F00000000A7B38B3E0A14D1BE6A
:10561000193C3CBE0D38E3BE679CF6BE8237C4BD64
:10562000E179B9BEE179B93E0839CF3DDA38023FB8
:10563000D315EC3E7594433E6478CC3E629F88BEA1
:1056400000000000710405BFD5CD0DBF3D80BDBE7B
:10565000FA0B59BFA7CEB33E1E5171BEDBA5973FD3
:105660006171823F6171823F1CB7C23FD0EC9ABE2C
:105670007102173FE948B6BF1D5852BFB6669DBFBD
:105680005E83B8BF00000000F03550BFFFCD9B3FE8
:10569000ACFE143F49DAB33FA48BC33FE6959B3E73
:1056A00096798B3F96798BBF9C8A94BE25B1BABF01
:1056B0009CE1AABF08900DBFC18F9ABFAC8C4E3F32
:1056C00000000000E543C03F01F7A43FBD735C3F0D
:1056D0000EBBB73F163518BFE1D1963E3B8EBDBF1E
:1056E0006CE983BF6CE983BF7215B5BF5114903E5E
:1056F000EECC10BF25CAAE3F9A055A3F8125A33F85
:10570000000024421A17FE3E00000000F17EAC3E6D
:10571000D251BEBEA3224EBDDDCE02BF9E5DD6BE1F
:1057200016FC9EBEE7AA01BF1157CE3DED6583BEB4
:105730007E39DB3E3F1D0F3E47E4EB3E6479DF3EA2
:105740003964533E26A7F63E86554CBE5568503EFA
:10575000679D11BF3D0FAEBE46D222BF17BA52BFE2
:10576000362353BEFEBA4BBFD520083F00E319BE17
:1057700064AD813F8658293F29594E3F20D5823F4D
:1057800032AD4D3D63F2323F63F232BF465F41BD01
:105790002E0376BF93C53DBFE0BD1BBFFB0478BFA2
:1057A0003D29133ED5CF0FBFCD3A573FAAF3803ED8
:1057B00081B3803FE0496B3F5987FB3EF625773F39
:1057C000BADCB0BE7102C33EAA656BBFBED8D3BE01
:1057D000CBF45FBFF3746ABF4B3E8EBE85B654BF39
:1057E00087FDFE3E1D1D47BED9407A3FCA871C3F3C
:1057F000910E533FEFC6843FEF3CD13D247B443FA5
:105800007B1432BF00000000D44881BFE09C39BF48
:10581000C93A28BFA33F74BF5873C03DACC612BF7E
:1058200096E7453FD597453E6D57783FEFC8603FB7
:1058300013BB063F5C737F3FF8FA9ABE0A2CE03E2A
:1058400072FC6CBFA988BBBE855F62BFFA9B4CBF70
:10585000B56B92BE4AEC22BF282BAE3EC76316BE84
:10586000DF18163FE752943E72FBDD3EB379F43EFB
:10587000CB0E913D44A4BE3EB8749CBEA0FDC83C76
:10588000C4B4FFBEAD4DBBBEAD4DBBBE9F2005BF7A
:10589000F147D13C904EA5BE4C6DC93E1B9D933D3A
:1058A00047C8F83E242ACC3E166B883E3717EF3E99
:1058B0007E8EEFBD70066F3E8997DFBEFA9B30BECD
:1058C00096CBF6BE3485F6BE7A394CBEB85AEFBEDA
:1058D0009C69623EAF5E15BE1134F63E3204803ED6
:1058E0003695D53ED157F03E583ABF3DDD0CC73E08
:1058F00040A093BEEC6C483D035EFEBE0709B1BEFE
:105900001954C3BE00000C425A0E003F00000000B4
:10591000B395BF3E6AA4ADBE55DE4E3D244603BFDF
:105920000B0E9FBEDE75D6BE5F7C01BF240DCEBDC3
:10593000E3E0DABED730833EEA050FBE01BEEB3EA0
:10594000DA71533EF087DF3E8EB2F63EF65E4C3E95
:105950007A89113FC24B50BEDAE3AD3EA4A922BF03
:1059600044F952BE479052BFD5B04BBF151A08BF7D
:1059700074B781BFCCEE193EDC6729BFE86B4E3FA0
:10598000F4A74D3DF2D1823FD8D3323FD8D3323F36
:1059900051D8753FB83D413D3DD13D3F71C71BBF1B
:1059A0008865133EE46A78BFE62410BF13BA57BF78
:1059B000A3E580BFDD2581BE081E6BBF6D58FB3E91
:1059C0006841B0BE0A4D763F630EC23E143F6A3F47
:1059D00003275F3F1A16D33E58906A3FF04E8EBEA3
:1059E000FB23003F2ACA55BF008F48BE90117CBFE1
:1059F000043954BF2C651DBFECDE84BFAE62D13DBF
:105A0000183F31BFAC8F433F00000000554B803F33
:105A1000062A273FEF6F383FC7DA733F2D24C03D7A
:105A20005D6C463F2C2913BFAB20463E970379BFE0
:105A300000A806BF04A960BF70407FBF0ADC9ABE01
:105A40002D0570BFD40AE33E1EDCC5BE77D66E3F7F
:105A50002AC8A73EBC756A3FD61B553F67D1E33EB7
:105A60004DD6683F6F4A69BE151A083FD5B04BBF87
:105A70002B1815BE52477BBF1A1A4BBF6DAE26BFFF
:105A8000DF4F85BF7193513DE1453BBFE1453B3F52
:105A900004754ABDF7C8803FD68E1E3F1634413F7D
:105AA000FDA0723F4DF60F3E73D94C3F44E008BF56
:105AB000917C753E690275BFB0AFF5BEBFD265BFC0
:105AC000569C7ABFFC56B3BEC21776BFA4DECB3E4F
:105AD0000B44DFBE25076C3F62F6923E323C723FBC
